{
  "_format": "hh-sol-artifact-1",
  "contractName": "Place",
  "sourceName": "contracts/Place.sol",
  "abi": [
    {
      "inputs": [
        {
          "internalType": "string",
          "name": "_baseTokenURI",
          "type": "string"
        },
        {
          "internalType": "uint256",
          "name": "_maxTokenIds",
          "type": "uint256"
        }
      ],
      "stateMutability": "nonpayable",
      "type": "constructor"
    },
    {
      "anonymous": false,
      "inputs": [
        {
          "indexed": true,
          "internalType": "address",
          "name": "owner",
          "type": "address"
        },
        {
          "indexed": true,
          "internalType": "address",
          "name": "approved",
          "type": "address"
        },
        {
          "indexed": true,
          "internalType": "uint256",
          "name": "tokenId",
          "type": "uint256"
        }
      ],
      "name": "Approval",
      "type": "event"
    },
    {
      "anonymous": false,
      "inputs": [
        {
          "indexed": true,
          "internalType": "address",
          "name": "owner",
          "type": "address"
        },
        {
          "indexed": true,
          "internalType": "address",
          "name": "operator",
          "type": "address"
        },
        {
          "indexed": false,
          "internalType": "bool",
          "name": "approved",
          "type": "bool"
        }
      ],
      "name": "ApprovalForAll",
      "type": "event"
    },
    {
      "anonymous": false,
      "inputs": [
        {
          "indexed": true,
          "internalType": "address",
          "name": "previousOwner",
          "type": "address"
        },
        {
          "indexed": true,
          "internalType": "address",
          "name": "newOwner",
          "type": "address"
        }
      ],
      "name": "OwnershipTransferred",
      "type": "event"
    },
    {
      "anonymous": false,
      "inputs": [
        {
          "indexed": true,
          "internalType": "address",
          "name": "from",
          "type": "address"
        },
        {
          "indexed": true,
          "internalType": "address",
          "name": "to",
          "type": "address"
        },
        {
          "indexed": true,
          "internalType": "uint256",
          "name": "tokenId",
          "type": "uint256"
        }
      ],
      "name": "Transfer",
      "type": "event"
    },
    {
      "stateMutability": "payable",
      "type": "fallback"
    },
    {
      "inputs": [],
      "name": "addToGreylist",
      "outputs": [],
      "stateMutability": "nonpayable",
      "type": "function"
    },
    {
      "inputs": [
        {
          "internalType": "address",
          "name": "to",
          "type": "address"
        },
        {
          "internalType": "uint256",
          "name": "tokenId",
          "type": "uint256"
        }
      ],
      "name": "approve",
      "outputs": [],
      "stateMutability": "nonpayable",
      "type": "function"
    },
    {
      "inputs": [
        {
          "internalType": "address",
          "name": "owner",
          "type": "address"
        }
      ],
      "name": "balanceOf",
      "outputs": [
        {
          "internalType": "uint256",
          "name": "",
          "type": "uint256"
        }
      ],
      "stateMutability": "view",
      "type": "function"
    },
    {
      "inputs": [
        {
          "internalType": "uint256",
          "name": "",
          "type": "uint256"
        }
      ],
      "name": "color",
      "outputs": [
        {
          "internalType": "uint8",
          "name": "r",
          "type": "uint8"
        },
        {
          "internalType": "uint8",
          "name": "g",
          "type": "uint8"
        },
        {
          "internalType": "uint8",
          "name": "b",
          "type": "uint8"
        }
      ],
      "stateMutability": "view",
      "type": "function"
    },
    {
      "inputs": [
        {
          "internalType": "uint256",
          "name": "tokenId",
          "type": "uint256"
        }
      ],
      "name": "getApproved",
      "outputs": [
        {
          "internalType": "address",
          "name": "",
          "type": "address"
        }
      ],
      "stateMutability": "view",
      "type": "function"
    },
    {
      "inputs": [],
      "name": "getGreylistDuration",
      "outputs": [
        {
          "internalType": "uint256",
          "name": "",
          "type": "uint256"
        }
      ],
      "stateMutability": "view",
      "type": "function"
    },
    {
      "inputs": [
        {
          "internalType": "address",
          "name": "",
          "type": "address"
        }
      ],
      "name": "greylistedAddresses",
      "outputs": [
        {
          "internalType": "uint256",
          "name": "",
          "type": "uint256"
        }
      ],
      "stateMutability": "view",
      "type": "function"
    },
    {
      "inputs": [
        {
          "internalType": "address",
          "name": "owner",
          "type": "address"
        },
        {
          "internalType": "address",
          "name": "operator",
          "type": "address"
        }
      ],
      "name": "isApprovedForAll",
      "outputs": [
        {
          "internalType": "bool",
          "name": "",
          "type": "bool"
        }
      ],
      "stateMutability": "view",
      "type": "function"
    },
    {
      "inputs": [],
      "name": "isGreylisted",
      "outputs": [
        {
          "internalType": "bool",
          "name": "",
          "type": "bool"
        }
      ],
      "stateMutability": "view",
      "type": "function"
    },
    {
      "inputs": [
        {
          "internalType": "uint256",
          "name": "tokenId",
          "type": "uint256"
        }
      ],
      "name": "mintPixel",
      "outputs": [],
      "stateMutability": "payable",
      "type": "function"
    },
    {
      "inputs": [
        {
          "internalType": "uint256",
          "name": "",
          "type": "uint256"
        }
      ],
      "name": "minted",
      "outputs": [
        {
          "internalType": "bool",
          "name": "",
          "type": "bool"
        }
      ],
      "stateMutability": "view",
      "type": "function"
    },
    {
      "inputs": [],
      "name": "name",
      "outputs": [
        {
          "internalType": "string",
          "name": "",
          "type": "string"
        }
      ],
      "stateMutability": "view",
      "type": "function"
    },
    {
      "inputs": [],
      "name": "owner",
      "outputs": [
        {
          "internalType": "address",
          "name": "",
          "type": "address"
        }
      ],
      "stateMutability": "view",
      "type": "function"
    },
    {
      "inputs": [
        {
          "internalType": "uint256",
          "name": "tokenId",
          "type": "uint256"
        }
      ],
      "name": "ownerOf",
      "outputs": [
        {
          "internalType": "address",
          "name": "",
          "type": "address"
        }
      ],
      "stateMutability": "view",
      "type": "function"
    },
    {
      "inputs": [],
      "name": "paused",
      "outputs": [
        {
          "internalType": "bool",
          "name": "",
          "type": "bool"
        }
      ],
      "stateMutability": "view",
      "type": "function"
    },
    {
      "inputs": [],
      "name": "price",
      "outputs": [
        {
          "internalType": "uint256",
          "name": "",
          "type": "uint256"
        }
      ],
      "stateMutability": "view",
      "type": "function"
    },
    {
      "inputs": [],
      "name": "renounceOwnership",
      "outputs": [],
      "stateMutability": "nonpayable",
      "type": "function"
    },
    {
      "inputs": [
        {
          "internalType": "address",
          "name": "from",
          "type": "address"
        },
        {
          "internalType": "address",
          "name": "to",
          "type": "address"
        },
        {
          "internalType": "uint256",
          "name": "tokenId",
          "type": "uint256"
        }
      ],
      "name": "safeTransferFrom",
      "outputs": [],
      "stateMutability": "nonpayable",
      "type": "function"
    },
    {
      "inputs": [
        {
          "internalType": "address",
          "name": "from",
          "type": "address"
        },
        {
          "internalType": "address",
          "name": "to",
          "type": "address"
        },
        {
          "internalType": "uint256",
          "name": "tokenId",
          "type": "uint256"
        },
        {
          "internalType": "bytes",
          "name": "_data",
          "type": "bytes"
        }
      ],
      "name": "safeTransferFrom",
      "outputs": [],
      "stateMutability": "nonpayable",
      "type": "function"
    },
    {
      "inputs": [
        {
          "internalType": "address",
          "name": "operator",
          "type": "address"
        },
        {
          "internalType": "bool",
          "name": "approved",
          "type": "bool"
        }
      ],
      "name": "setApprovalForAll",
      "outputs": [],
      "stateMutability": "nonpayable",
      "type": "function"
    },
    {
      "inputs": [
        {
          "internalType": "uint256",
          "name": "tokenId",
          "type": "uint256"
        },
        {
          "components": [
            {
              "internalType": "uint8",
              "name": "r",
              "type": "uint8"
            },
            {
              "internalType": "uint8",
              "name": "g",
              "type": "uint8"
            },
            {
              "internalType": "uint8",
              "name": "b",
              "type": "uint8"
            }
          ],
          "internalType": "struct Place.Color",
          "name": "_colorHex",
          "type": "tuple"
        }
      ],
      "name": "setColor",
      "outputs": [],
      "stateMutability": "nonpayable",
      "type": "function"
    },
    {
      "inputs": [
        {
          "internalType": "bool",
          "name": "_paused",
          "type": "bool"
        }
      ],
      "name": "setPaused",
      "outputs": [],
      "stateMutability": "nonpayable",
      "type": "function"
    },
    {
      "inputs": [
        {
          "internalType": "bytes4",
          "name": "interfaceId",
          "type": "bytes4"
        }
      ],
      "name": "supportsInterface",
      "outputs": [
        {
          "internalType": "bool",
          "name": "",
          "type": "bool"
        }
      ],
      "stateMutability": "view",
      "type": "function"
    },
    {
      "inputs": [],
      "name": "symbol",
      "outputs": [
        {
          "internalType": "string",
          "name": "",
          "type": "string"
        }
      ],
      "stateMutability": "view",
      "type": "function"
    },
    {
      "inputs": [
        {
          "internalType": "uint256",
          "name": "index",
          "type": "uint256"
        }
      ],
      "name": "tokenByIndex",
      "outputs": [
        {
          "internalType": "uint256",
          "name": "",
          "type": "uint256"
        }
      ],
      "stateMutability": "view",
      "type": "function"
    },
    {
      "inputs": [],
      "name": "tokenIdsLeft",
      "outputs": [
        {
          "internalType": "uint256",
          "name": "",
          "type": "uint256"
        }
      ],
      "stateMutability": "view",
      "type": "function"
    },
    {
      "inputs": [
        {
          "internalType": "address",
          "name": "owner",
          "type": "address"
        },
        {
          "internalType": "uint256",
          "name": "index",
          "type": "uint256"
        }
      ],
      "name": "tokenOfOwnerByIndex",
      "outputs": [
        {
          "internalType": "uint256",
          "name": "",
          "type": "uint256"
        }
      ],
      "stateMutability": "view",
      "type": "function"
    },
    {
      "inputs": [
        {
          "internalType": "uint256",
          "name": "tokenId",
          "type": "uint256"
        }
      ],
      "name": "tokenURI",
      "outputs": [
        {
          "internalType": "string",
          "name": "",
          "type": "string"
        }
      ],
      "stateMutability": "view",
      "type": "function"
    },
    {
      "inputs": [],
      "name": "totalSupply",
      "outputs": [
        {
          "internalType": "uint256",
          "name": "",
          "type": "uint256"
        }
      ],
      "stateMutability": "view",
      "type": "function"
    },
    {
      "inputs": [
        {
          "internalType": "address",
          "name": "from",
          "type": "address"
        },
        {
          "internalType": "address",
          "name": "to",
          "type": "address"
        },
        {
          "internalType": "uint256",
          "name": "tokenId",
          "type": "uint256"
        }
      ],
      "name": "transferFrom",
      "outputs": [],
      "stateMutability": "nonpayable",
      "type": "function"
    },
    {
      "inputs": [
        {
          "internalType": "address",
          "name": "newOwner",
          "type": "address"
        }
      ],
      "name": "transferOwnership",
      "outputs": [],
      "stateMutability": "nonpayable",
      "type": "function"
    },
    {
      "inputs": [],
      "name": "withdraw",
      "outputs": [],
      "stateMutability": "nonpayable",
      "type": "function"
    },
    {
      "stateMutability": "payable",
      "type": "receive"
    }
  ],
  "bytecode": "0x608060405266038d7ea4c68000600d553480156200001c57600080fd5b506040516200495a3803806200495a833981810160405281019062000042919062000331565b6040518060400160405280601081526020017f426c6f636b706c61636520506978656c000000000000000000000000000000008152506040518060400160405280600281526020017f42500000000000000000000000000000000000000000000000000000000000008152508160009080519060200190620000c6929190620001f8565b508060019080519060200190620000df929190620001f8565b50505062000102620000f66200012a60201b60201c565b6200013260201b60201c565b81600c90805190602001906200011a929190620001f8565b5080600f8190555050506200051f565b600033905090565b6000600a60009054906101000a900473ffffffffffffffffffffffffffffffffffffffff16905081600a60006101000a81548173ffffffffffffffffffffffffffffffffffffffff021916908373ffffffffffffffffffffffffffffffffffffffff1602179055508173ffffffffffffffffffffffffffffffffffffffff168173ffffffffffffffffffffffffffffffffffffffff167f8be0079c531659141344cd1fd0a4f28419497f9722a3daafe3b4186f6b6457e060405160405180910390a35050565b82805462000206906200042a565b90600052602060002090601f0160209004810192826200022a576000855562000276565b82601f106200024557805160ff191683800117855562000276565b8280016001018555821562000276579182015b828111156200027557825182559160200191906001019062000258565b5b50905062000285919062000289565b5090565b5b80821115620002a45760008160009055506001016200028a565b5090565b6000620002bf620002b984620003b4565b6200038b565b905082815260208101848484011115620002d857600080fd5b620002e5848285620003f4565b509392505050565b600082601f830112620002ff57600080fd5b815162000311848260208601620002a8565b91505092915050565b6000815190506200032b8162000505565b92915050565b600080604083850312156200034557600080fd5b600083015167ffffffffffffffff8111156200036057600080fd5b6200036e85828601620002ed565b925050602062000381858286016200031a565b9150509250929050565b600062000397620003aa565b9050620003a5828262000460565b919050565b6000604051905090565b600067ffffffffffffffff821115620003d257620003d1620004c5565b5b620003dd82620004f4565b9050602081019050919050565b6000819050919050565b60005b8381101562000414578082015181840152602081019050620003f7565b8381111562000424576000848401525b50505050565b600060028204905060018216806200044357607f821691505b602082108114156200045a576200045962000496565b5b50919050565b6200046b82620004f4565b810181811067ffffffffffffffff821117156200048d576200048c620004c5565b5b80604052505050565b7f4e487b7100000000000000000000000000000000000000000000000000000000600052602260045260246000fd5b7f4e487b7100000000000000000000000000000000000000000000000000000000600052604160045260246000fd5b6000601f19601f8301169050919050565b6200051081620003ea565b81146200051c57600080fd5b50565b61442b806200052f6000396000f3fe6080604052600436106101e75760003560e01c80635c975abb11610102578063a22cb46511610095578063daf916b511610064578063daf916b514610710578063e985e9c51461072c578063f2fde38b14610769578063fdd6512914610792576101ee565b8063a22cb46514610642578063b88d4fde1461066b578063c87b56dd14610694578063d4e28c9c146106d1576101ee565b80637dc0bf3f116100d15780637dc0bf3f146105845780638da5cb5b146105c157806395d89b41146105ec578063a035b1fe14610617576101ee565b80635c975abb146104c85780636352211e146104f357806370a0823114610530578063715018a61461056d576101ee565b80632f745c591161017a5780634ca1c910116101495780634ca1c9101461041e5780634f6ccce714610435578063527f7aad146104725780635b650cfc1461049d576101ee565b80632f745c5914610364578063339b1d3f146103a15780633ccfd60b146103de57806342842e0e146103f5576101ee565b80630f0fb9f9116101b65780630f0fb9f9146102be57806316c38b3c146102e757806318160ddd1461031057806323b872dd1461033b576101ee565b806301ffc9a7146101f057806306fdde031461022d578063081812fc14610258578063095ea7b314610295576101ee565b366101ee57005b005b3480156101fc57600080fd5b5061021760048036038101906102129190612f99565b6107bd565b6040516102249190613580565b60405180910390f35b34801561023957600080fd5b50610242610837565b60405161024f919061359b565b60405180910390f35b34801561026457600080fd5b5061027f600480360381019061027a9190612feb565b6108c9565b60405161028c9190613519565b60405180910390f35b3480156102a157600080fd5b506102bc60048036038101906102b79190612f34565b61094e565b005b3480156102ca57600080fd5b506102e560048036038101906102e09190613014565b610a66565b005b3480156102f357600080fd5b5061030e60048036038101906103099190612f70565b610be9565b005b34801561031c57600080fd5b50610325610c82565b60405161033291906138fd565b60405180910390f35b34801561034757600080fd5b50610362600480360381019061035d9190612e2e565b610c8f565b005b34801561037057600080fd5b5061038b60048036038101906103869190612f34565b610cef565b60405161039891906138fd565b60405180910390f35b3480156103ad57600080fd5b506103c860048036038101906103c39190612dc9565b610d94565b6040516103d591906138fd565b60405180910390f35b3480156103ea57600080fd5b506103f3610dac565b005b34801561040157600080fd5b5061041c60048036038101906104179190612e2e565b610eea565b005b34801561042a57600080fd5b50610433610f0a565b005b34801561044157600080fd5b5061045c60048036038101906104579190612feb565b610f5c565b60405161046991906138fd565b60405180910390f35b34801561047e57600080fd5b50610487610ff3565b6040516104949190613580565b60405180910390f35b3480156104a957600080fd5b506104b261104d565b6040516104bf91906138fd565b60405180910390f35b3480156104d457600080fd5b506104dd611053565b6040516104ea9190613580565b60405180910390f35b3480156104ff57600080fd5b5061051a60048036038101906105159190612feb565b611066565b6040516105279190613519565b60405180910390f35b34801561053c57600080fd5b5061055760048036038101906105529190612dc9565b611118565b60405161056491906138fd565b60405180910390f35b34801561057957600080fd5b506105826111d0565b005b34801561059057600080fd5b506105ab60048036038101906105a69190612feb565b611258565b6040516105b89190613580565b60405180910390f35b3480156105cd57600080fd5b506105d6611278565b6040516105e39190613519565b60405180910390f35b3480156105f857600080fd5b506106016112a2565b60405161060e919061359b565b60405180910390f35b34801561062357600080fd5b5061062c611334565b60405161063991906138fd565b60405180910390f35b34801561064e57600080fd5b5061066960048036038101906106649190612ef8565b61133a565b005b34801561067757600080fd5b50610692600480360381019061068d9190612e7d565b611350565b005b3480156106a057600080fd5b506106bb60048036038101906106b69190612feb565b6113b2565b6040516106c8919061359b565b60405180910390f35b3480156106dd57600080fd5b506106f860048036038101906106f39190612feb565b611459565b60405161070793929190613918565b60405180910390f35b61072a60048036038101906107259190612feb565b6114aa565b005b34801561073857600080fd5b50610753600480360381019061074e9190612df2565b611725565b6040516107609190613580565b60405180910390f35b34801561077557600080fd5b50610790600480360381019061078b9190612dc9565b6117b9565b005b34801561079e57600080fd5b506107a76118b1565b6040516107b491906138fd565b60405180910390f35b60007f780e9d63000000000000000000000000000000000000000000000000000000007bffffffffffffffffffffffffffffffffffffffffffffffffffffffff1916827bffffffffffffffffffffffffffffffffffffffffffffffffffffffff19161480610830575061082f82611954565b5b9050919050565b60606000805461084690613b71565b80601f016020809104026020016040519081016040528092919081815260200182805461087290613b71565b80156108bf5780601f10610894576101008083540402835291602001916108bf565b820191906000526020600020905b8154815290600101906020018083116108a257829003601f168201915b5050505050905090565b60006108d482611a36565b610913576040517f08c379a000000000000000000000000000000000000000000000000000000000815260040161090a9061381d565b60405180910390fd5b6004600083815260200190815260200160002060009054906101000a900473ffffffffffffffffffffffffffffffffffffffff169050919050565b600061095982611066565b90508073ffffffffffffffffffffffffffffffffffffffff168373ffffffffffffffffffffffffffffffffffffffff1614156109ca576040517f08c379a00000000000000000000000000000000000000000000000000000000081526004016109c19061387d565b60405180910390fd5b8073ffffffffffffffffffffffffffffffffffffffff166109e9611aa2565b73ffffffffffffffffffffffffffffffffffffffff161480610a185750610a1781610a12611aa2565b611725565b5b610a57576040517f08c379a0000000000000000000000000000000000000000000000000000000008152600401610a4e9061375d565b60405180910390fd5b610a618383611aaa565b505050565b6010600083815260200190815260200160002060009054906101000a900460ff16610ac6576040517f08c379a0000000000000000000000000000000000000000000000000000000008152600401610abd9061373d565b60405180910390fd5b3373ffffffffffffffffffffffffffffffffffffffff16610ae683611066565b73ffffffffffffffffffffffffffffffffffffffff1614610b3c576040517f08c379a0000000000000000000000000000000000000000000000000000000008152600401610b33906137fd565b60405180910390fd5b6040518060600160405280826000015160ff168152602001826020015160ff168152602001826040015160ff168152506011600084815260200190815260200160002060008201518160000160006101000a81548160ff021916908360ff16021790555060208201518160000160016101000a81548160ff021916908360ff16021790555060408201518160000160026101000a81548160ff021916908360ff1602179055509050505050565b610bf1611aa2565b73ffffffffffffffffffffffffffffffffffffffff16610c0f611278565b73ffffffffffffffffffffffffffffffffffffffff1614610c65576040517f08c379a0000000000000000000000000000000000000000000000000000000008152600401610c5c9061383d565b60405180910390fd5b80600e60006101000a81548160ff02191690831515021790555050565b6000600880549050905090565b610ca0610c9a611aa2565b82611b63565b610cdf576040517f08c379a0000000000000000000000000000000000000000000000000000000008152600401610cd69061389d565b60405180910390fd5b610cea838383611c41565b505050565b6000610cfa83611118565b8210610d3b576040517f08c379a0000000000000000000000000000000000000000000000000000000008152600401610d32906135fd565b60405180910390fd5b600660008473ffffffffffffffffffffffffffffffffffffffff1673ffffffffffffffffffffffffffffffffffffffff168152602001908152602001600020600083815260200190815260200160002054905092915050565b600b6020528060005260406000206000915090505481565b610db4611aa2565b73ffffffffffffffffffffffffffffffffffffffff16610dd2611278565b73ffffffffffffffffffffffffffffffffffffffff1614610e28576040517f08c379a0000000000000000000000000000000000000000000000000000000008152600401610e1f9061383d565b60405180910390fd5b6000610e32611278565b9050600047905060008273ffffffffffffffffffffffffffffffffffffffff1682604051610e5f90613504565b60006040518083038185875af1925050503d8060008114610e9c576040519150601f19603f3d011682016040523d82523d6000602084013e610ea1565b606091505b5050905080610ee5576040517f08c379a0000000000000000000000000000000000000000000000000000000008152600401610edc906135bd565b60405180910390fd5b505050565b610f0583838360405180602001604052806000815250611350565b505050565b601442610f1791906139f3565b600b60003373ffffffffffffffffffffffffffffffffffffffff1673ffffffffffffffffffffffffffffffffffffffff16815260200190815260200160002081905550565b6000610f66610c82565b8210610fa7576040517f08c379a0000000000000000000000000000000000000000000000000000000008152600401610f9e906138bd565b60405180910390fd5b60088281548110610fe1577f4e487b7100000000000000000000000000000000000000000000000000000000600052603260045260246000fd5b90600052602060002001549050919050565b600042600b60003373ffffffffffffffffffffffffffffffffffffffff1673ffffffffffffffffffffffffffffffffffffffff168152602001908152602001600020541115611045576001905061104a565b600090505b90565b600f5481565b600e60009054906101000a900460ff1681565b6000806002600084815260200190815260200160002060009054906101000a900473ffffffffffffffffffffffffffffffffffffffff169050600073ffffffffffffffffffffffffffffffffffffffff168173ffffffffffffffffffffffffffffffffffffffff16141561110f576040517f08c379a00000000000000000000000000000000000000000000000000000000081526004016111069061379d565b60405180910390fd5b80915050919050565b60008073ffffffffffffffffffffffffffffffffffffffff168273ffffffffffffffffffffffffffffffffffffffff161415611189576040517f08c379a00000000000000000000000000000000000000000000000000000000081526004016111809061377d565b60405180910390fd5b600360008373ffffffffffffffffffffffffffffffffffffffff1673ffffffffffffffffffffffffffffffffffffffff168152602001908152602001600020549050919050565b6111d8611aa2565b73ffffffffffffffffffffffffffffffffffffffff166111f6611278565b73ffffffffffffffffffffffffffffffffffffffff161461124c576040517f08c379a00000000000000000000000000000000000000000000000000000000081526004016112439061383d565b60405180910390fd5b6112566000611ea8565b565b60106020528060005260406000206000915054906101000a900460ff1681565b6000600a60009054906101000a900473ffffffffffffffffffffffffffffffffffffffff16905090565b6060600180546112b190613b71565b80601f01602080910402602001604051908101604052809291908181526020018280546112dd90613b71565b801561132a5780601f106112ff5761010080835404028352916020019161132a565b820191906000526020600020905b81548152906001019060200180831161130d57829003601f168201915b5050505050905090565b600d5481565b61134c611345611aa2565b8383611f6e565b5050565b61136161135b611aa2565b83611b63565b6113a0576040517f08c379a00000000000000000000000000000000000000000000000000000000081526004016113979061389d565b60405180910390fd5b6113ac848484846120db565b50505050565b60606113bd82611a36565b6113fc576040517f08c379a00000000000000000000000000000000000000000000000000000000081526004016113f39061385d565b60405180910390fd5b6000611406612137565b905060008151116114265760405180602001604052806000815250611451565b80611430846121c9565b6040516020016114419291906134e0565b6040516020818303038152906040525b915050919050565b60116020528060005260406000206000915090508060000160009054906101000a900460ff16908060000160019054906101000a900460ff16908060000160029054906101000a900460ff16905083565b600e60009054906101000a900460ff16156114fa576040517f08c379a00000000000000000000000000000000000000000000000000000000081526004016114f1906137bd565b60405180910390fd5b611502610ff3565b15611542576040517f08c379a00000000000000000000000000000000000000000000000000000000081526004016115399061365d565b60405180910390fd5b6000600f5411611587576040517f08c379a000000000000000000000000000000000000000000000000000000000815260040161157e9061369d565b60405180910390fd5b6010600082815260200190815260200160002060009054906101000a900460ff16156115e8576040517f08c379a00000000000000000000000000000000000000000000000000000000081526004016115df906135dd565b60405180910390fd5b600d5434101561162d576040517f08c379a0000000000000000000000000000000000000000000000000000000008152600401611624906138dd565b60405180910390fd5b6001600f60008282546116409190613a7a565b9250508190555060016010600083815260200190815260200160002060006101000a81548160ff021916908315150217905550604051806060016040528060ff8016815260200160ff8016815260200160ff80168152506011600083815260200190815260200160002060008201518160000160006101000a81548160ff021916908360ff16021790555060208201518160000160016101000a81548160ff021916908360ff16021790555060408201518160000160026101000a81548160ff021916908360ff160217905550905050611718610f0a565b6117223382612376565b50565b6000600560008473ffffffffffffffffffffffffffffffffffffffff1673ffffffffffffffffffffffffffffffffffffffff16815260200190815260200160002060008373ffffffffffffffffffffffffffffffffffffffff1673ffffffffffffffffffffffffffffffffffffffff16815260200190815260200160002060009054906101000a900460ff16905092915050565b6117c1611aa2565b73ffffffffffffffffffffffffffffffffffffffff166117df611278565b73ffffffffffffffffffffffffffffffffffffffff1614611835576040517f08c379a000000000000000000000000000000000000000000000000000000000815260040161182c9061383d565b60405180910390fd5b600073ffffffffffffffffffffffffffffffffffffffff168173ffffffffffffffffffffffffffffffffffffffff1614156118a5576040517f08c379a000000000000000000000000000000000000000000000000000000000815260040161189c9061363d565b60405180910390fd5b6118ae81611ea8565b50565b600042600b60003373ffffffffffffffffffffffffffffffffffffffff1673ffffffffffffffffffffffffffffffffffffffff1681526020019081526020016000205410156119035760009050611951565b42600b60003373ffffffffffffffffffffffffffffffffffffffff1673ffffffffffffffffffffffffffffffffffffffff1681526020019081526020016000205461194e9190613a7a565b90505b90565b60007f80ac58cd000000000000000000000000000000000000000000000000000000007bffffffffffffffffffffffffffffffffffffffffffffffffffffffff1916827bffffffffffffffffffffffffffffffffffffffffffffffffffffffff19161480611a1f57507f5b5e139f000000000000000000000000000000000000000000000000000000007bffffffffffffffffffffffffffffffffffffffffffffffffffffffff1916827bffffffffffffffffffffffffffffffffffffffffffffffffffffffff1916145b80611a2f5750611a2e82612394565b5b9050919050565b60008073ffffffffffffffffffffffffffffffffffffffff166002600084815260200190815260200160002060009054906101000a900473ffffffffffffffffffffffffffffffffffffffff1673ffffffffffffffffffffffffffffffffffffffff1614159050919050565b600033905090565b816004600083815260200190815260200160002060006101000a81548173ffffffffffffffffffffffffffffffffffffffff021916908373ffffffffffffffffffffffffffffffffffffffff160217905550808273ffffffffffffffffffffffffffffffffffffffff16611b1d83611066565b73ffffffffffffffffffffffffffffffffffffffff167f8c5be1e5ebec7d5bd14f71427d1e84f3dd0314c0f7b2291e5b200ac8c7c3b92560405160405180910390a45050565b6000611b6e82611a36565b611bad576040517f08c379a0000000000000000000000000000000000000000000000000000000008152600401611ba49061371d565b60405180910390fd5b6000611bb883611066565b90508073ffffffffffffffffffffffffffffffffffffffff168473ffffffffffffffffffffffffffffffffffffffff161480611c2757508373ffffffffffffffffffffffffffffffffffffffff16611c0f846108c9565b73ffffffffffffffffffffffffffffffffffffffff16145b80611c385750611c378185611725565b5b91505092915050565b8273ffffffffffffffffffffffffffffffffffffffff16611c6182611066565b73ffffffffffffffffffffffffffffffffffffffff1614611cb7576040517f08c379a0000000000000000000000000000000000000000000000000000000008152600401611cae9061367d565b60405180910390fd5b600073ffffffffffffffffffffffffffffffffffffffff168273ffffffffffffffffffffffffffffffffffffffff161415611d27576040517f08c379a0000000000000000000000000000000000000000000000000000000008152600401611d1e906136dd565b60405180910390fd5b611d328383836123fe565b611d3d600082611aaa565b6001600360008573ffffffffffffffffffffffffffffffffffffffff1673ffffffffffffffffffffffffffffffffffffffff1681526020019081526020016000206000828254611d8d9190613a7a565b925050819055506001600360008473ffffffffffffffffffffffffffffffffffffffff1673ffffffffffffffffffffffffffffffffffffffff1681526020019081526020016000206000828254611de491906139f3565b92505081905550816002600083815260200190815260200160002060006101000a81548173ffffffffffffffffffffffffffffffffffffffff021916908373ffffffffffffffffffffffffffffffffffffffff160217905550808273ffffffffffffffffffffffffffffffffffffffff168473ffffffffffffffffffffffffffffffffffffffff167fddf252ad1be2c89b69c2b068fc378daa952ba7f163c4a11628f55a4df523b3ef60405160405180910390a4611ea3838383612512565b505050565b6000600a60009054906101000a900473ffffffffffffffffffffffffffffffffffffffff16905081600a60006101000a81548173ffffffffffffffffffffffffffffffffffffffff021916908373ffffffffffffffffffffffffffffffffffffffff1602179055508173ffffffffffffffffffffffffffffffffffffffff168173ffffffffffffffffffffffffffffffffffffffff167f8be0079c531659141344cd1fd0a4f28419497f9722a3daafe3b4186f6b6457e060405160405180910390a35050565b8173ffffffffffffffffffffffffffffffffffffffff168373ffffffffffffffffffffffffffffffffffffffff161415611fdd576040517f08c379a0000000000000000000000000000000000000000000000000000000008152600401611fd4906136fd565b60405180910390fd5b80600560008573ffffffffffffffffffffffffffffffffffffffff1673ffffffffffffffffffffffffffffffffffffffff16815260200190815260200160002060008473ffffffffffffffffffffffffffffffffffffffff1673ffffffffffffffffffffffffffffffffffffffff16815260200190815260200160002060006101000a81548160ff0219169083151502179055508173ffffffffffffffffffffffffffffffffffffffff168373ffffffffffffffffffffffffffffffffffffffff167f17307eab39ab6107e8899845ad3d59bd9653f200f220920489ca2b5937696c31836040516120ce9190613580565b60405180910390a3505050565b6120e6848484611c41565b6120f284848484612517565b612131576040517f08c379a00000000000000000000000000000000000000000000000000000000081526004016121289061361d565b60405180910390fd5b50505050565b6060600c805461214690613b71565b80601f016020809104026020016040519081016040528092919081815260200182805461217290613b71565b80156121bf5780601f10612194576101008083540402835291602001916121bf565b820191906000526020600020905b8154815290600101906020018083116121a257829003601f168201915b5050505050905090565b60606000821415612211576040518060400160405280600181526020017f30000000000000000000000000000000000000000000000000000000000000008152509050612371565b600082905060005b6000821461224357808061222c90613bd4565b915050600a8261223c9190613a49565b9150612219565b60008167ffffffffffffffff811115612285577f4e487b7100000000000000000000000000000000000000000000000000000000600052604160045260246000fd5b6040519080825280601f01601f1916602001820160405280156122b75781602001600182028036833780820191505090505b5090505b6000851461236a576001826122d09190613a7a565b9150600a856122df9190613c1d565b60306122eb91906139f3565b60f81b818381518110612327577f4e487b7100000000000000000000000000000000000000000000000000000000600052603260045260246000fd5b60200101907effffffffffffffffffffffffffffffffffffffffffffffffffffffffffffff1916908160001a905350600a856123639190613a49565b94506122bb565b8093505050505b919050565b6123908282604051806020016040528060008152506126ae565b5050565b60007f01ffc9a7000000000000000000000000000000000000000000000000000000007bffffffffffffffffffffffffffffffffffffffffffffffffffffffff1916827bffffffffffffffffffffffffffffffffffffffffffffffffffffffff1916149050919050565b612409838383612709565b600073ffffffffffffffffffffffffffffffffffffffff168373ffffffffffffffffffffffffffffffffffffffff16141561244c576124478161270e565b61248b565b8173ffffffffffffffffffffffffffffffffffffffff168373ffffffffffffffffffffffffffffffffffffffff161461248a576124898382612757565b5b5b600073ffffffffffffffffffffffffffffffffffffffff168273ffffffffffffffffffffffffffffffffffffffff1614156124ce576124c9816128c4565b61250d565b8273ffffffffffffffffffffffffffffffffffffffff168273ffffffffffffffffffffffffffffffffffffffff161461250c5761250b8282612a07565b5b5b505050565b505050565b60006125388473ffffffffffffffffffffffffffffffffffffffff16612a86565b156126a1578373ffffffffffffffffffffffffffffffffffffffff1663150b7a02612561611aa2565b8786866040518563ffffffff1660e01b81526004016125839493929190613534565b602060405180830381600087803b15801561259d57600080fd5b505af19250505080156125ce57506040513d601f19601f820116820180604052508101906125cb9190612fc2565b60015b612651573d80600081146125fe576040519150601f19603f3d011682016040523d82523d6000602084013e612603565b606091505b50600081511415612649576040517f08c379a00000000000000000000000000000000000000000000000000000000081526004016126409061361d565b60405180910390fd5b805181602001fd5b63150b7a0260e01b7bffffffffffffffffffffffffffffffffffffffffffffffffffffffff1916817bffffffffffffffffffffffffffffffffffffffffffffffffffffffff1916149150506126a6565b600190505b949350505050565b6126b88383612aa9565b6126c56000848484612517565b612704576040517f08c379a00000000000000000000000000000000000000000000000000000000081526004016126fb9061361d565b60405180910390fd5b505050565b505050565b6008805490506009600083815260200190815260200160002081905550600881908060018154018082558091505060019003906000526020600020016000909190919091505550565b6000600161276484611118565b61276e9190613a7a565b9050600060076000848152602001908152602001600020549050818114612853576000600660008673ffffffffffffffffffffffffffffffffffffffff1673ffffffffffffffffffffffffffffffffffffffff168152602001908152602001600020600084815260200190815260200160002054905080600660008773ffffffffffffffffffffffffffffffffffffffff1673ffffffffffffffffffffffffffffffffffffffff168152602001908152602001600020600084815260200190815260200160002081905550816007600083815260200190815260200160002081905550505b6007600084815260200190815260200160002060009055600660008573ffffffffffffffffffffffffffffffffffffffff1673ffffffffffffffffffffffffffffffffffffffff16815260200190815260200160002060008381526020019081526020016000206000905550505050565b600060016008805490506128d89190613a7a565b905060006009600084815260200190815260200160002054905060006008838154811061292e577f4e487b7100000000000000000000000000000000000000000000000000000000600052603260045260246000fd5b906000526020600020015490508060088381548110612976577f4e487b7100000000000000000000000000000000000000000000000000000000600052603260045260246000fd5b9060005260206000200181905550816009600083815260200190815260200160002081905550600960008581526020019081526020016000206000905560088054806129eb577f4e487b7100000000000000000000000000000000000000000000000000000000600052603160045260246000fd5b6001900381819060005260206000200160009055905550505050565b6000612a1283611118565b905081600660008573ffffffffffffffffffffffffffffffffffffffff1673ffffffffffffffffffffffffffffffffffffffff168152602001908152602001600020600083815260200190815260200160002081905550806007600084815260200190815260200160002081905550505050565b6000808273ffffffffffffffffffffffffffffffffffffffff163b119050919050565b600073ffffffffffffffffffffffffffffffffffffffff168273ffffffffffffffffffffffffffffffffffffffff161415612b19576040517f08c379a0000000000000000000000000000000000000000000000000000000008152600401612b10906137dd565b60405180910390fd5b612b2281611a36565b15612b62576040517f08c379a0000000000000000000000000000000000000000000000000000000008152600401612b59906136bd565b60405180910390fd5b612b6e600083836123fe565b6001600360008473ffffffffffffffffffffffffffffffffffffffff1673ffffffffffffffffffffffffffffffffffffffff1681526020019081526020016000206000828254612bbe91906139f3565b92505081905550816002600083815260200190815260200160002060006101000a81548173ffffffffffffffffffffffffffffffffffffffff021916908373ffffffffffffffffffffffffffffffffffffffff160217905550808273ffffffffffffffffffffffffffffffffffffffff16600073ffffffffffffffffffffffffffffffffffffffff167fddf252ad1be2c89b69c2b068fc378daa952ba7f163c4a11628f55a4df523b3ef60405160405180910390a4612c7f60008383612512565b5050565b6000612c96612c9184613974565b61394f565b905082815260208101848484011115612cae57600080fd5b612cb9848285613b2f565b509392505050565b600081359050612cd081614382565b92915050565b600081359050612ce581614399565b92915050565b600081359050612cfa816143b0565b92915050565b600081519050612d0f816143b0565b92915050565b600082601f830112612d2657600080fd5b8135612d36848260208601612c83565b91505092915050565b600060608284031215612d5157600080fd5b612d5b606061394f565b90506000612d6b84828501612db4565b6000830152506020612d7f84828501612db4565b6020830152506040612d9384828501612db4565b60408301525092915050565b600081359050612dae816143c7565b92915050565b600081359050612dc3816143de565b92915050565b600060208284031215612ddb57600080fd5b6000612de984828501612cc1565b91505092915050565b60008060408385031215612e0557600080fd5b6000612e1385828601612cc1565b9250506020612e2485828601612cc1565b9150509250929050565b600080600060608486031215612e4357600080fd5b6000612e5186828701612cc1565b9350506020612e6286828701612cc1565b9250506040612e7386828701612d9f565b9150509250925092565b60008060008060808587031215612e9357600080fd5b6000612ea187828801612cc1565b9450506020612eb287828801612cc1565b9350506040612ec387828801612d9f565b925050606085013567ffffffffffffffff811115612ee057600080fd5b612eec87828801612d15565b91505092959194509250565b60008060408385031215612f0b57600080fd5b6000612f1985828601612cc1565b9250506020612f2a85828601612cd6565b9150509250929050565b60008060408385031215612f4757600080fd5b6000612f5585828601612cc1565b9250506020612f6685828601612d9f565b9150509250929050565b600060208284031215612f8257600080fd5b6000612f9084828501612cd6565b91505092915050565b600060208284031215612fab57600080fd5b6000612fb984828501612ceb565b91505092915050565b600060208284031215612fd457600080fd5b6000612fe284828501612d00565b91505092915050565b600060208284031215612ffd57600080fd5b600061300b84828501612d9f565b91505092915050565b6000806080838503121561302757600080fd5b600061303585828601612d9f565b925050602061304685828601612d3f565b9150509250929050565b61305981613aae565b82525050565b61306881613ac0565b82525050565b6000613079826139a5565b61308381856139bb565b9350613093818560208601613b3e565b61309c81613d0a565b840191505092915050565b60006130b2826139b0565b6130bc81856139d7565b93506130cc818560208601613b3e565b6130d581613d0a565b840191505092915050565b60006130eb826139b0565b6130f581856139e8565b9350613105818560208601613b3e565b80840191505092915050565b600061311e6016836139d7565b915061312982613d1b565b602082019050919050565b60006131416014836139d7565b915061314c82613d44565b602082019050919050565b6000613164602b836139d7565b915061316f82613d6d565b604082019050919050565b60006131876032836139d7565b915061319282613dbc565b604082019050919050565b60006131aa6026836139d7565b91506131b582613e0b565b604082019050919050565b60006131cd601a836139d7565b91506131d882613e5a565b602082019050919050565b60006131f06025836139d7565b91506131fb82613e83565b604082019050919050565b60006132136011836139d7565b915061321e82613ed2565b602082019050919050565b6000613236601c836139d7565b915061324182613efb565b602082019050919050565b60006132596024836139d7565b915061326482613f24565b604082019050919050565b600061327c6019836139d7565b915061328782613f73565b602082019050919050565b600061329f602c836139d7565b91506132aa82613f9c565b604082019050919050565b60006132c2601c836139d7565b91506132cd82613feb565b602082019050919050565b60006132e56038836139d7565b91506132f082614014565b604082019050919050565b6000613308602a836139d7565b915061331382614063565b604082019050919050565b600061332b6029836139d7565b9150613336826140b2565b604082019050919050565b600061334e601f836139d7565b915061335982614101565b602082019050919050565b60006133716020836139d7565b915061337c8261412a565b602082019050919050565b60006133946023836139d7565b915061339f82614153565b604082019050919050565b60006133b7602c836139d7565b91506133c2826141a2565b604082019050919050565b60006133da6020836139d7565b91506133e5826141f1565b602082019050919050565b60006133fd602f836139d7565b91506134088261421a565b604082019050919050565b60006134206021836139d7565b915061342b82614269565b604082019050919050565b60006134436000836139cc565b915061344e826142b8565b600082019050919050565b60006134666031836139d7565b9150613471826142bb565b604082019050919050565b6000613489602c836139d7565b91506134948261430a565b604082019050919050565b60006134ac6014836139d7565b91506134b782614359565b602082019050919050565b6134cb81613b18565b82525050565b6134da81613b22565b82525050565b60006134ec82856130e0565b91506134f882846130e0565b91508190509392505050565b600061350f82613436565b9150819050919050565b600060208201905061352e6000830184613050565b92915050565b60006080820190506135496000830187613050565b6135566020830186613050565b61356360408301856134c2565b8181036060830152613575818461306e565b905095945050505050565b6000602082019050613595600083018461305f565b92915050565b600060208201905081810360008301526135b581846130a7565b905092915050565b600060208201905081810360008301526135d681613111565b9050919050565b600060208201905081810360008301526135f681613134565b9050919050565b6000602082019050818103600083015261361681613157565b9050919050565b600060208201905081810360008301526136368161317a565b9050919050565b600060208201905081810360008301526136568161319d565b9050919050565b60006020820190508181036000830152613676816131c0565b9050919050565b60006020820190508181036000830152613696816131e3565b9050919050565b600060208201905081810360008301526136b681613206565b9050919050565b600060208201905081810360008301526136d681613229565b9050919050565b600060208201905081810360008301526136f68161324c565b9050919050565b600060208201905081810360008301526137168161326f565b9050919050565b6000602082019050818103600083015261373681613292565b9050919050565b60006020820190508181036000830152613756816132b5565b9050919050565b60006020820190508181036000830152613776816132d8565b9050919050565b60006020820190508181036000830152613796816132fb565b9050919050565b600060208201905081810360008301526137b68161331e565b9050919050565b600060208201905081810360008301526137d681613341565b9050919050565b600060208201905081810360008301526137f681613364565b9050919050565b6000602082019050818103600083015261381681613387565b9050919050565b60006020820190508181036000830152613836816133aa565b9050919050565b60006020820190508181036000830152613856816133cd565b9050919050565b60006020820190508181036000830152613876816133f0565b9050919050565b6000602082019050818103600083015261389681613413565b9050919050565b600060208201905081810360008301526138b681613459565b9050919050565b600060208201905081810360008301526138d68161347c565b9050919050565b600060208201905081810360008301526138f68161349f565b9050919050565b600060208201905061391260008301846134c2565b92915050565b600060608201905061392d60008301866134d1565b61393a60208301856134d1565b61394760408301846134d1565b949350505050565b600061395961396a565b90506139658282613ba3565b919050565b6000604051905090565b600067ffffffffffffffff82111561398f5761398e613cdb565b5b61399882613d0a565b9050602081019050919050565b600081519050919050565b600081519050919050565b600082825260208201905092915050565b600081905092915050565b600082825260208201905092915050565b600081905092915050565b60006139fe82613b18565b9150613a0983613b18565b9250827fffffffffffffffffffffffffffffffffffffffffffffffffffffffffffffffff03821115613a3e57613a3d613c4e565b5b828201905092915050565b6000613a5482613b18565b9150613a5f83613b18565b925082613a6f57613a6e613c7d565b5b828204905092915050565b6000613a8582613b18565b9150613a9083613b18565b925082821015613aa357613aa2613c4e565b5b828203905092915050565b6000613ab982613af8565b9050919050565b60008115159050919050565b60007fffffffff0000000000000000000000000000000000000000000000000000000082169050919050565b600073ffffffffffffffffffffffffffffffffffffffff82169050919050565b6000819050919050565b600060ff82169050919050565b82818337600083830152505050565b60005b83811015613b5c578082015181840152602081019050613b41565b83811115613b6b576000848401525b50505050565b60006002820490506001821680613b8957607f821691505b60208210811415613b9d57613b9c613cac565b5b50919050565b613bac82613d0a565b810181811067ffffffffffffffff82111715613bcb57613bca613cdb565b5b80604052505050565b6000613bdf82613b18565b91507fffffffffffffffffffffffffffffffffffffffffffffffffffffffffffffffff821415613c1257613c11613c4e565b5b600182019050919050565b6000613c2882613b18565b9150613c3383613b18565b925082613c4357613c42613c7d565b5b828206905092915050565b7f4e487b7100000000000000000000000000000000000000000000000000000000600052601160045260246000fd5b7f4e487b7100000000000000000000000000000000000000000000000000000000600052601260045260246000fd5b7f4e487b7100000000000000000000000000000000000000000000000000000000600052602260045260246000fd5b7f4e487b7100000000000000000000000000000000000000000000000000000000600052604160045260246000fd5b6000601f19601f8301169050919050565b7f4661696c656420746f2073656e642062616c616e636500000000000000000000600082015250565b7f546f6b656e20616c7265616479206d696e746564000000000000000000000000600082015250565b7f455243373231456e756d657261626c653a206f776e657220696e646578206f7560008201527f74206f6620626f756e6473000000000000000000000000000000000000000000602082015250565b7f4552433732313a207472616e7366657220746f206e6f6e20455243373231526560008201527f63656976657220696d706c656d656e7465720000000000000000000000000000602082015250565b7f4f776e61626c653a206e6577206f776e657220697320746865207a65726f206160008201527f6464726573730000000000000000000000000000000000000000000000000000602082015250565b7f44656e6965643a20596f752061726520677265796c6973746564000000000000600082015250565b7f4552433732313a207472616e736665722066726f6d20696e636f72726563742060008201527f6f776e6572000000000000000000000000000000000000000000000000000000602082015250565b7f416c6c20746f6b656e73206d696e746564000000000000000000000000000000600082015250565b7f4552433732313a20746f6b656e20616c7265616479206d696e74656400000000600082015250565b7f4552433732313a207472616e7366657220746f20746865207a65726f2061646460008201527f7265737300000000000000000000000000000000000000000000000000000000602082015250565b7f4552433732313a20617070726f766520746f2063616c6c657200000000000000600082015250565b7f4552433732313a206f70657261746f7220717565727920666f72206e6f6e657860008201527f697374656e7420746f6b656e0000000000000000000000000000000000000000602082015250565b7f44656e6965643a20546f6b656e206e6f7420796574206d696e74656400000000600082015250565b7f4552433732313a20617070726f76652063616c6c6572206973206e6f74206f7760008201527f6e6572206e6f7220617070726f76656420666f7220616c6c0000000000000000602082015250565b7f4552433732313a2062616c616e636520717565727920666f7220746865207a6560008201527f726f206164647265737300000000000000000000000000000000000000000000602082015250565b7f4552433732313a206f776e657220717565727920666f72206e6f6e657869737460008201527f656e7420746f6b656e0000000000000000000000000000000000000000000000602082015250565b7f506c61636520636f6e74726163742063757272656e746c792070617573656400600082015250565b7f4552433732313a206d696e7420746f20746865207a65726f2061646472657373600082015250565b7f44656e6965643a20796f7520617265206e6f742074686520746f6b656e206f7760008201527f6e65720000000000000000000000000000000000000000000000000000000000602082015250565b7f4552433732313a20617070726f76656420717565727920666f72206e6f6e657860008201527f697374656e7420746f6b656e0000000000000000000000000000000000000000602082015250565b7f4f776e61626c653a2063616c6c6572206973206e6f7420746865206f776e6572600082015250565b7f4552433732314d657461646174613a2055524920717565727920666f72206e6f60008201527f6e6578697374656e7420746f6b656e0000000000000000000000000000000000602082015250565b7f4552433732313a20617070726f76616c20746f2063757272656e74206f776e6560008201527f7200000000000000000000000000000000000000000000000000000000000000602082015250565b50565b7f4552433732313a207472616e736665722063616c6c6572206973206e6f74206f60008201527f776e6572206e6f7220617070726f766564000000000000000000000000000000602082015250565b7f455243373231456e756d657261626c653a20676c6f62616c20696e646578206f60008201527f7574206f6620626f756e64730000000000000000000000000000000000000000602082015250565b7f496e73756666696369656e74206465706f736974000000000000000000000000600082015250565b61438b81613aae565b811461439657600080fd5b50565b6143a281613ac0565b81146143ad57600080fd5b50565b6143b981613acc565b81146143c457600080fd5b50565b6143d081613b18565b81146143db57600080fd5b50565b6143e781613b22565b81146143f257600080fd5b5056fea26469706673582212201f73c73865c1181cabdb89f30db39742c27c06ed93c2e6bcd2c0c981e94b2adf64736f6c63430008040033",
  "linkReferences": {},
  "deployedLinkReferences": {}
}