{
  "_format": "hh-sol-artifact-1",
  "contractName": "Greylist",
  "sourceName": "contracts/Greylist.sol",
  "abi": [
    {
      "inputs": [],
      "name": "addToGreylist",
      "outputs": [],
      "stateMutability": "nonpayable",
      "type": "function"
    },
    {
      "inputs": [],
      "name": "getGreylistDuration",
      "outputs": [
        {
          "internalType": "uint256",
          "name": "",
          "type": "uint256"
        }
      ],
      "stateMutability": "view",
      "type": "function"
    },
    {
      "inputs": [
        {
          "internalType": "address",
          "name": "",
          "type": "address"
        }
      ],
      "name": "greylistedAddresses",
      "outputs": [
        {
          "internalType": "uint256",
          "name": "",
          "type": "uint256"
        }
      ],
      "stateMutability": "view",
      "type": "function"
    },
    {
      "inputs": [],
      "name": "isGreylisted",
      "outputs": [
        {
          "internalType": "bool",
          "name": "",
          "type": "bool"
        }
      ],
      "stateMutability": "view",
      "type": "function"
    }
  ],
  "bytecode": "0x608060405234801561001057600080fd5b5061040a806100206000396000f3fe608060405234801561001057600080fd5b506004361061004c5760003560e01c8063339b1d3f146100515780634ca1c91014610081578063527f7aad1461008b578063fdd65129146100a9575b600080fd5b61006b6004803603810190610066919061023f565b6100c7565b60405161007891906102a1565b60405180910390f35b6100896100df565b005b610093610130565b6040516100a09190610286565b60405180910390f35b6100b1610189565b6040516100be91906102a1565b60405180910390f35b60006020528060005260406000206000915090505481565b6002426100ec91906102bc565b6000803373ffffffffffffffffffffffffffffffffffffffff1673ffffffffffffffffffffffffffffffffffffffff16815260200190815260200160002081905550565b6000426000803373ffffffffffffffffffffffffffffffffffffffff1673ffffffffffffffffffffffffffffffffffffffff1681526020019081526020016000205411156101815760019050610186565b600090505b90565b6000426000803373ffffffffffffffffffffffffffffffffffffffff1673ffffffffffffffffffffffffffffffffffffffff1681526020019081526020016000205410156101da5760009050610227565b426000803373ffffffffffffffffffffffffffffffffffffffff1673ffffffffffffffffffffffffffffffffffffffff168152602001908152602001600020546102249190610312565b90505b90565b600081359050610239816103bd565b92915050565b60006020828403121561025157600080fd5b600061025f8482850161022a565b91505092915050565b61027181610358565b82525050565b61028081610384565b82525050565b600060208201905061029b6000830184610268565b92915050565b60006020820190506102b66000830184610277565b92915050565b60006102c782610384565b91506102d283610384565b9250827fffffffffffffffffffffffffffffffffffffffffffffffffffffffffffffffff038211156103075761030661038e565b5b828201905092915050565b600061031d82610384565b915061032883610384565b92508282101561033b5761033a61038e565b5b828203905092915050565b600061035182610364565b9050919050565b60008115159050919050565b600073ffffffffffffffffffffffffffffffffffffffff82169050919050565b6000819050919050565b7f4e487b7100000000000000000000000000000000000000000000000000000000600052601160045260246000fd5b6103c681610346565b81146103d157600080fd5b5056fea264697066735822122013fa80b23a3dba151d874cf2bce0b884e830f89b6c0d24b08eed483aa174a80964736f6c63430008040033",
  "linkReferences": {},
  "deployedLinkReferences": {}
}